{"abi":[{"type":"constructor","inputs":[{"name":"_usdc","type":"address","internalType":"address"}],"stateMutability":"nonpayable"},{"type":"function","name":"USDC","inputs":[],"outputs":[{"name":"","type":"address","internalType":"contract IERC20"}],"stateMutability":"view"},{"type":"function","name":"createPlan","inputs":[{"name":"payee","type":"address","internalType":"address"},{"name":"amount","type":"uint256","internalType":"uint256"},{"name":"intervalSecs","type":"uint64","internalType":"uint64"}],"outputs":[{"name":"id","type":"uint256","internalType":"uint256"}],"stateMutability":"nonpayable"},{"type":"function","name":"nextId","inputs":[],"outputs":[{"name":"","type":"uint256","internalType":"uint256"}],"stateMutability":"view"},{"type":"function","name":"plans","inputs":[{"name":"","type":"uint256","internalType":"uint256"}],"outputs":[{"name":"payer","type":"address","internalType":"address"},{"name":"payee","type":"address","internalType":"address"},{"name":"amount","type":"uint256","internalType":"uint256"},{"name":"intervalSecs","type":"uint64","internalType":"uint64"},{"name":"nextDue","type":"uint64","internalType":"uint64"},{"name":"active","type":"bool","internalType":"bool"}],"stateMutability":"view"},{"type":"function","name":"settleIfDue","inputs":[{"name":"id","type":"uint256","internalType":"uint256"}],"outputs":[],"stateMutability":"nonpayable"}],"bytecode":{"object":"0x60a060405260018055348015610013575f80fd5b50604051610c85380380610c85833981810160405281019061003591906100cd565b8073ffffffffffffffffffffffffffffffffffffffff1660808173ffffffffffffffffffffffffffffffffffffffff1681525050506100f8565b5f80fd5b5f73ffffffffffffffffffffffffffffffffffffffff82169050919050565b5f61009c82610073565b9050919050565b6100ac81610092565b81146100b6575f80fd5b50565b5f815190506100c7816100a3565b92915050565b5f602082840312156100e2576100e161006f565b5b5f6100ef848285016100b9565b91505092915050565b608051610b6e6101175f395f818161011e01526102b40152610b6e5ff3fe608060405234801561000f575f80fd5b5060043610610055575f3560e01c806361b8ce8c1461005957806389a3027114610077578063b162061614610095578063cd4cf385146100ca578063fc9e8c1e146100e6575b5f80fd5b610061610116565b60405161006e9190610620565b60405180910390f35b61007f61011c565b60405161008c91906106b3565b60405180910390f35b6100af60048036038101906100aa91906106fa565b610140565b6040516100c196959493929190610781565b60405180910390f35b6100e460048036038101906100df91906106fa565b6101e9565b005b61010060048036038101906100fb9190610834565b61043f565b60405161010d9190610620565b60405180910390f35b60015481565b7f000000000000000000000000000000000000000000000000000000000000000081565b5f602052805f5260405f205f91509050805f015f9054906101000a900473ffffffffffffffffffffffffffffffffffffffff1690806001015f9054906101000a900473ffffffffffffffffffffffffffffffffffffffff1690806002015490806003015f9054906101000a900467ffffffffffffffff16908060030160089054906101000a900467ffffffffffffffff16908060030160109054906101000a900460ff16905086565b5f805f8381526020019081526020015f2090508060030160109054906101000a900460ff1661024d576040517f08c379a0000000000000000000000000000000000000000000000000000000008152600401610244906108de565b60405180910390fd5b8060030160089054906101000a900467ffffffffffffffff1667ffffffffffffffff164210156102b2576040517f08c379a00000000000000000000000000000000000000000000000000000000081526004016102a990610946565b60405180910390fd5b7f000000000000000000000000000000000000000000000000000000000000000073ffffffffffffffffffffffffffffffffffffffff166323b872dd825f015f9054906101000a900473ffffffffffffffffffffffffffffffffffffffff16836001015f9054906101000a900473ffffffffffffffffffffffffffffffffffffffff1684600201546040518463ffffffff1660e01b815260040161035893929190610964565b6020604051808303815f875af1158015610374573d5f803e3d5ffd5b505050506040513d601f19601f8201168201806040525081019061039891906109c3565b6103d7576040517f08c379a00000000000000000000000000000000000000000000000000000000081526004016103ce90610a38565b60405180910390fd5b806003015f9054906101000a900467ffffffffffffffff168160030160088282829054906101000a900467ffffffffffffffff166104159190610a83565b92506101000a81548167ffffffffffffffff021916908367ffffffffffffffff1602179055505050565b5f60015f81548092919061045290610abe565b9190505590506040518060c001604052803373ffffffffffffffffffffffffffffffffffffffff1681526020018573ffffffffffffffffffffffffffffffffffffffff1681526020018481526020018367ffffffffffffffff1681526020018367ffffffffffffffff16426104c79190610b05565b67ffffffffffffffff168152602001600115158152505f808381526020019081526020015f205f820151815f015f6101000a81548173ffffffffffffffffffffffffffffffffffffffff021916908373ffffffffffffffffffffffffffffffffffffffff1602179055506020820151816001015f6101000a81548173ffffffffffffffffffffffffffffffffffffffff021916908373ffffffffffffffffffffffffffffffffffffffff160217905550604082015181600201556060820151816003015f6101000a81548167ffffffffffffffff021916908367ffffffffffffffff16021790555060808201518160030160086101000a81548167ffffffffffffffff021916908367ffffffffffffffff16021790555060a08201518160030160106101000a81548160ff0219169083151502179055509050509392505050565b5f819050919050565b61061a81610608565b82525050565b5f6020820190506106335f830184610611565b92915050565b5f73ffffffffffffffffffffffffffffffffffffffff82169050919050565b5f819050919050565b5f61067b61067661067184610639565b610658565b610639565b9050919050565b5f61068c82610661565b9050919050565b5f61069d82610682565b9050919050565b6106ad81610693565b82525050565b5f6020820190506106c65f8301846106a4565b92915050565b5f80fd5b6106d981610608565b81146106e3575f80fd5b50565b5f813590506106f4816106d0565b92915050565b5f6020828403121561070f5761070e6106cc565b5b5f61071c848285016106e6565b91505092915050565b5f61072f82610639565b9050919050565b61073f81610725565b82525050565b5f67ffffffffffffffff82169050919050565b61076181610745565b82525050565b5f8115159050919050565b61077b81610767565b82525050565b5f60c0820190506107945f830189610736565b6107a16020830188610736565b6107ae6040830187610611565b6107bb6060830186610758565b6107c86080830185610758565b6107d560a0830184610772565b979650505050505050565b6107e981610725565b81146107f3575f80fd5b50565b5f81359050610804816107e0565b92915050565b61081381610745565b811461081d575f80fd5b50565b5f8135905061082e8161080a565b92915050565b5f805f6060848603121561084b5761084a6106cc565b5b5f610858868287016107f6565b9350506020610869868287016106e6565b925050604061087a86828701610820565b9150509250925092565b5f82825260208201905092915050565b7f6e6f7420616374697665000000000000000000000000000000000000000000005f82015250565b5f6108c8600a83610884565b91506108d382610894565b602082019050919050565b5f6020820190508181035f8301526108f5816108bc565b9050919050565b7f6e6f7420647565000000000000000000000000000000000000000000000000005f82015250565b5f610930600783610884565b915061093b826108fc565b602082019050919050565b5f6020820190508181035f83015261095d81610924565b9050919050565b5f6060820190506109775f830186610736565b6109846020830185610736565b6109916040830184610611565b949350505050565b6109a281610767565b81146109ac575f80fd5b50565b5f815190506109bd81610999565b92915050565b5f602082840312156109d8576109d76106cc565b5b5f6109e5848285016109af565b91505092915050565b7f7472616e73666572206661696c656400000000000000000000000000000000005f82015250565b5f610a22600f83610884565b9150610a2d826109ee565b602082019050919050565b5f6020820190508181035f830152610a4f81610a16565b9050919050565b7f4e487b71000000000000000000000000000000000000000000000000000000005f52601160045260245ffd5b5f610a8d82610745565b9150610a9883610745565b9250828201905067ffffffffffffffff811115610ab857610ab7610a56565b5b92915050565b5f610ac882610608565b91507fffffffffffffffffffffffffffffffffffffffffffffffffffffffffffffffff8203610afa57610af9610a56565b5b600182019050919050565b5f610b0f82610608565b9150610b1a83610608565b9250828201905080821115610b3257610b31610a56565b5b9291505056fea26469706673582212209029d405668ceeab9bf536aced0f6e484b739a54d0cf673b44f452d93c43c10d64736f6c63430008180033","linkReferences":{}},"methodIdentifiers":{"USDC()":"89a30271","createPlan(address,uint256,uint64)":"fc9e8c1e","nextId()":"61b8ce8c","plans(uint256)":"b1620616","settleIfDue(uint256)":"cd4cf385"},"id":0}